{
  "contractName": "Zombies",
  "abi": [
    {
      "inputs": [
        {
          "internalType": "string",
          "name": "_name",
          "type": "string"
        },
        {
          "internalType": "string",
          "name": "_symbol",
          "type": "string"
        }
      ],
      "stateMutability": "nonpayable",
      "type": "constructor"
    },
    {
      "anonymous": false,
      "inputs": [
        {
          "indexed": true,
          "internalType": "address",
          "name": "owner",
          "type": "address"
        },
        {
          "indexed": true,
          "internalType": "address",
          "name": "approved",
          "type": "address"
        },
        {
          "indexed": true,
          "internalType": "uint256",
          "name": "tokenId",
          "type": "uint256"
        }
      ],
      "name": "Approval",
      "type": "event"
    },
    {
      "anonymous": false,
      "inputs": [
        {
          "indexed": true,
          "internalType": "address",
          "name": "owner",
          "type": "address"
        },
        {
          "indexed": true,
          "internalType": "address",
          "name": "operator",
          "type": "address"
        },
        {
          "indexed": false,
          "internalType": "bool",
          "name": "approved",
          "type": "bool"
        }
      ],
      "name": "ApprovalForAll",
      "type": "event"
    },
    {
      "anonymous": false,
      "inputs": [
        {
          "indexed": true,
          "internalType": "address",
          "name": "previousOwner",
          "type": "address"
        },
        {
          "indexed": true,
          "internalType": "address",
          "name": "newOwner",
          "type": "address"
        }
      ],
      "name": "OwnershipTransferred",
      "type": "event"
    },
    {
      "anonymous": false,
      "inputs": [
        {
          "indexed": false,
          "internalType": "address",
          "name": "account",
          "type": "address"
        }
      ],
      "name": "Paused",
      "type": "event"
    },
    {
      "anonymous": false,
      "inputs": [
        {
          "indexed": true,
          "internalType": "address",
          "name": "from",
          "type": "address"
        },
        {
          "indexed": true,
          "internalType": "address",
          "name": "to",
          "type": "address"
        },
        {
          "indexed": true,
          "internalType": "uint256",
          "name": "tokenId",
          "type": "uint256"
        }
      ],
      "name": "Transfer",
      "type": "event"
    },
    {
      "anonymous": false,
      "inputs": [
        {
          "indexed": false,
          "internalType": "address",
          "name": "account",
          "type": "address"
        }
      ],
      "name": "Unpaused",
      "type": "event"
    },
    {
      "inputs": [
        {
          "internalType": "address",
          "name": "to",
          "type": "address"
        },
        {
          "internalType": "uint256",
          "name": "tokenId",
          "type": "uint256"
        }
      ],
      "name": "approve",
      "outputs": [],
      "stateMutability": "nonpayable",
      "type": "function"
    },
    {
      "inputs": [
        {
          "internalType": "address",
          "name": "owner",
          "type": "address"
        }
      ],
      "name": "balanceOf",
      "outputs": [
        {
          "internalType": "uint256",
          "name": "",
          "type": "uint256"
        }
      ],
      "stateMutability": "view",
      "type": "function",
      "constant": true
    },
    {
      "inputs": [
        {
          "internalType": "uint256",
          "name": "tokenId",
          "type": "uint256"
        }
      ],
      "name": "burn",
      "outputs": [],
      "stateMutability": "nonpayable",
      "type": "function"
    },
    {
      "inputs": [
        {
          "internalType": "uint256",
          "name": "tokenId",
          "type": "uint256"
        }
      ],
      "name": "getApproved",
      "outputs": [
        {
          "internalType": "address",
          "name": "",
          "type": "address"
        }
      ],
      "stateMutability": "view",
      "type": "function",
      "constant": true
    },
    {
      "inputs": [
        {
          "internalType": "address",
          "name": "owner",
          "type": "address"
        },
        {
          "internalType": "address",
          "name": "operator",
          "type": "address"
        }
      ],
      "name": "isApprovedForAll",
      "outputs": [
        {
          "internalType": "bool",
          "name": "",
          "type": "bool"
        }
      ],
      "stateMutability": "view",
      "type": "function",
      "constant": true
    },
    {
      "inputs": [],
      "name": "name",
      "outputs": [
        {
          "internalType": "string",
          "name": "",
          "type": "string"
        }
      ],
      "stateMutability": "view",
      "type": "function",
      "constant": true
    },
    {
      "inputs": [],
      "name": "owner",
      "outputs": [
        {
          "internalType": "address",
          "name": "",
          "type": "address"
        }
      ],
      "stateMutability": "view",
      "type": "function",
      "constant": true
    },
    {
      "inputs": [
        {
          "internalType": "uint256",
          "name": "tokenId",
          "type": "uint256"
        }
      ],
      "name": "ownerOf",
      "outputs": [
        {
          "internalType": "address",
          "name": "",
          "type": "address"
        }
      ],
      "stateMutability": "view",
      "type": "function",
      "constant": true
    },
    {
      "inputs": [],
      "name": "paused",
      "outputs": [
        {
          "internalType": "bool",
          "name": "",
          "type": "bool"
        }
      ],
      "stateMutability": "view",
      "type": "function",
      "constant": true
    },
    {
      "inputs": [],
      "name": "renounceOwnership",
      "outputs": [],
      "stateMutability": "nonpayable",
      "type": "function"
    },
    {
      "inputs": [
        {
          "internalType": "address",
          "name": "from",
          "type": "address"
        },
        {
          "internalType": "address",
          "name": "to",
          "type": "address"
        },
        {
          "internalType": "uint256",
          "name": "tokenId",
          "type": "uint256"
        }
      ],
      "name": "safeTransferFrom",
      "outputs": [],
      "stateMutability": "nonpayable",
      "type": "function"
    },
    {
      "inputs": [
        {
          "internalType": "address",
          "name": "from",
          "type": "address"
        },
        {
          "internalType": "address",
          "name": "to",
          "type": "address"
        },
        {
          "internalType": "uint256",
          "name": "tokenId",
          "type": "uint256"
        },
        {
          "internalType": "bytes",
          "name": "data",
          "type": "bytes"
        }
      ],
      "name": "safeTransferFrom",
      "outputs": [],
      "stateMutability": "nonpayable",
      "type": "function"
    },
    {
      "inputs": [
        {
          "internalType": "address",
          "name": "operator",
          "type": "address"
        },
        {
          "internalType": "bool",
          "name": "approved",
          "type": "bool"
        }
      ],
      "name": "setApprovalForAll",
      "outputs": [],
      "stateMutability": "nonpayable",
      "type": "function"
    },
    {
      "inputs": [
        {
          "internalType": "bytes4",
          "name": "interfaceId",
          "type": "bytes4"
        }
      ],
      "name": "supportsInterface",
      "outputs": [
        {
          "internalType": "bool",
          "name": "",
          "type": "bool"
        }
      ],
      "stateMutability": "view",
      "type": "function",
      "constant": true
    },
    {
      "inputs": [],
      "name": "symbol",
      "outputs": [
        {
          "internalType": "string",
          "name": "",
          "type": "string"
        }
      ],
      "stateMutability": "view",
      "type": "function",
      "constant": true
    },
    {
      "inputs": [
        {
          "internalType": "uint256",
          "name": "tokenId",
          "type": "uint256"
        }
      ],
      "name": "tokenURI",
      "outputs": [
        {
          "internalType": "string",
          "name": "",
          "type": "string"
        }
      ],
      "stateMutability": "view",
      "type": "function",
      "constant": true
    },
    {
      "inputs": [
        {
          "internalType": "address",
          "name": "from",
          "type": "address"
        },
        {
          "internalType": "address",
          "name": "to",
          "type": "address"
        },
        {
          "internalType": "uint256",
          "name": "tokenId",
          "type": "uint256"
        }
      ],
      "name": "transferFrom",
      "outputs": [],
      "stateMutability": "nonpayable",
      "type": "function"
    },
    {
      "inputs": [
        {
          "internalType": "address",
          "name": "newOwner",
          "type": "address"
        }
      ],
      "name": "transferOwnership",
      "outputs": [],
      "stateMutability": "nonpayable",
      "type": "function"
    },
    {
      "inputs": [],
      "name": "pause",
      "outputs": [],
      "stateMutability": "nonpayable",
      "type": "function"
    },
    {
      "inputs": [],
      "name": "unpause",
      "outputs": [],
      "stateMutability": "nonpayable",
      "type": "function"
    },
    {
      "inputs": [
        {
          "internalType": "address",
          "name": "to",
          "type": "address"
        }
      ],
      "name": "safeMint",
      "outputs": [],
      "stateMutability": "nonpayable",
      "type": "function"
    }
  ],
  "bytecode": "0x60806040523480156200001157600080fd5b50604051620033af380380620033af833981810160405281019062000037919062000303565b818181600090816200004a9190620005d3565b5080600190816200005c9190620005d3565b5050506000600660006101000a81548160ff0219169083151502179055506200009a6200008e620000a260201b60201c565b620000aa60201b60201c565b5050620006ba565b600033905090565b6000600660019054906101000a900473ffffffffffffffffffffffffffffffffffffffff16905081600660016101000a81548173ffffffffffffffffffffffffffffffffffffffff021916908373ffffffffffffffffffffffffffffffffffffffff1602179055508173ffffffffffffffffffffffffffffffffffffffff168173ffffffffffffffffffffffffffffffffffffffff167f8be0079c531659141344cd1fd0a4f28419497f9722a3daafe3b4186f6b6457e060405160405180910390a35050565b6000604051905090565b600080fd5b600080fd5b600080fd5b600080fd5b6000601f19601f8301169050919050565b7f4e487b7100000000000000000000000000000000000000000000000000000000600052604160045260246000fd5b620001d9826200018e565b810181811067ffffffffffffffff82111715620001fb57620001fa6200019f565b5b80604052505050565b60006200021062000170565b90506200021e8282620001ce565b919050565b600067ffffffffffffffff8211156200024157620002406200019f565b5b6200024c826200018e565b9050602081019050919050565b60005b83811015620002795780820151818401526020810190506200025c565b60008484015250505050565b60006200029c620002968462000223565b62000204565b905082815260208101848484011115620002bb57620002ba62000189565b5b620002c884828562000259565b509392505050565b600082601f830112620002e857620002e762000184565b5b8151620002fa84826020860162000285565b91505092915050565b600080604083850312156200031d576200031c6200017a565b5b600083015167ffffffffffffffff8111156200033e576200033d6200017f565b5b6200034c85828601620002d0565b925050602083015167ffffffffffffffff81111562000370576200036f6200017f565b5b6200037e85828601620002d0565b9150509250929050565b600081519050919050565b7f4e487b7100000000000000000000000000000000000000000000000000000000600052602260045260246000fd5b60006002820490506001821680620003db57607f821691505b602082108103620003f157620003f062000393565b5b50919050565b60008190508160005260206000209050919050565b60006020601f8301049050919050565b600082821b905092915050565b6000600883026200045b7fffffffffffffffffffffffffffffffffffffffffffffffffffffffffffffffff826200041c565b6200046786836200041c565b95508019841693508086168417925050509392505050565b6000819050919050565b6000819050919050565b6000620004b4620004ae620004a8846200047f565b62000489565b6200047f565b9050919050565b6000819050919050565b620004d08362000493565b620004e8620004df82620004bb565b84845462000429565b825550505050565b600090565b620004ff620004f0565b6200050c818484620004c5565b505050565b5b81811015620005345762000528600082620004f5565b60018101905062000512565b5050565b601f82111562000583576200054d81620003f7565b62000558846200040c565b8101602085101562000568578190505b6200058062000577856200040c565b83018262000511565b50505b505050565b600082821c905092915050565b6000620005a86000198460080262000588565b1980831691505092915050565b6000620005c3838362000595565b9150826002028217905092915050565b620005de8262000388565b67ffffffffffffffff811115620005fa57620005f96200019f565b5b620006068254620003c2565b6200061382828562000538565b600060209050601f8311600181146200064b576000841562000636578287015190505b620006428582620005b5565b865550620006b2565b601f1984166200065b86620003f7565b60005b8281101562000685578489015182556001820191506020850194506020810190506200065e565b86831015620006a55784890151620006a1601f89168262000595565b8355505b6001600288020188555050505b505050505050565b612ce580620006ca6000396000f3fe608060405234801561001057600080fd5b50600436106101375760003560e01c80636352211e116100b857806395d89b411161007c57806395d89b4114610300578063a22cb4651461031e578063b88d4fde1461033a578063c87b56dd14610356578063e985e9c514610386578063f2fde38b146103b657610137565b80636352211e1461026e57806370a082311461029e578063715018a6146102ce5780638456cb59146102d85780638da5cb5b146102e257610137565b80633f4ba83a116100ff5780633f4ba83a146101f257806340d097c3146101fc57806342842e0e1461021857806342966c68146102345780635c975abb1461025057610137565b806301ffc9a71461013c57806306fdde031461016c578063081812fc1461018a578063095ea7b3146101ba57806323b872dd146101d6575b600080fd5b61015660048036038101906101519190611c9b565b6103d2565b6040516101639190611ce3565b60405180910390f35b6101746104b4565b6040516101819190611d8e565b60405180910390f35b6101a4600480360381019061019f9190611de6565b610546565b6040516101b19190611e54565b60405180910390f35b6101d460048036038101906101cf9190611e9b565b61058c565b005b6101f060048036038101906101eb9190611edb565b6106a3565b005b6101fa610703565b005b61021660048036038101906102119190611f2e565b610715565b005b610232600480360381019061022d9190611edb565b610743565b005b61024e60048036038101906102499190611de6565b610763565b005b6102586107bf565b6040516102659190611ce3565b60405180910390f35b61028860048036038101906102839190611de6565b6107d6565b6040516102959190611e54565b60405180910390f35b6102b860048036038101906102b39190611f2e565b610887565b6040516102c59190611f6a565b60405180910390f35b6102d661093e565b005b6102e0610952565b005b6102ea610964565b6040516102f79190611e54565b60405180910390f35b61030861098e565b6040516103159190611d8e565b60405180910390f35b61033860048036038101906103339190611fb1565b610a20565b005b610354600480360381019061034f9190612126565b610a36565b005b610370600480360381019061036b9190611de6565b610a98565b60405161037d9190611d8e565b60405180910390f35b6103a0600480360381019061039b91906121a9565b610b00565b6040516103ad9190611ce3565b60405180910390f35b6103d060048036038101906103cb9190611f2e565b610b94565b005b60007f80ac58cd000000000000000000000000000000000000000000000000000000007bffffffffffffffffffffffffffffffffffffffffffffffffffffffff1916827bffffffffffffffffffffffffffffffffffffffffffffffffffffffff1916148061049d57507f5b5e139f000000000000000000000000000000000000000000000000000000007bffffffffffffffffffffffffffffffffffffffffffffffffffffffff1916827bffffffffffffffffffffffffffffffffffffffffffffffffffffffff1916145b806104ad57506104ac82610c17565b5b9050919050565b6060600080546104c390612218565b80601f01602080910402602001604051908101604052809291908181526020018280546104ef90612218565b801561053c5780601f106105115761010080835404028352916020019161053c565b820191906000526020600020905b81548152906001019060200180831161051f57829003601f168201915b5050505050905090565b600061055182610c81565b6004600083815260200190815260200160002060009054906101000a900473ffffffffffffffffffffffffffffffffffffffff169050919050565b6000610597826107d6565b90508073ffffffffffffffffffffffffffffffffffffffff168373ffffffffffffffffffffffffffffffffffffffff1603610607576040517f08c379a00000000000000000000000000000000000000000000000000000000081526004016105fe906122bb565b60405180910390fd5b8073ffffffffffffffffffffffffffffffffffffffff16610626610ccc565b73ffffffffffffffffffffffffffffffffffffffff16148061065557506106548161064f610ccc565b610b00565b5b610694576040517f08c379a000000000000000000000000000000000000000000000000000000000815260040161068b9061234d565b60405180910390fd5b61069e8383610cd4565b505050565b6106b46106ae610ccc565b82610d8d565b6106f3576040517f08c379a00000000000000000000000000000000000000000000000000000000081526004016106ea906123df565b60405180910390fd5b6106fe838383610e22565b505050565b61070b611088565b610713611106565b565b61071d611169565b600061072960076111b3565b905061073560076111c1565b61073f82826111d7565b5050565b61075e83838360405180602001604052806000815250610a36565b505050565b61077461076e610ccc565b82610d8d565b6107b3576040517f08c379a00000000000000000000000000000000000000000000000000000000081526004016107aa906123df565b60405180910390fd5b6107bc816111f5565b50565b6000600660009054906101000a900460ff16905090565b6000806002600084815260200190815260200160002060009054906101000a900473ffffffffffffffffffffffffffffffffffffffff169050600073ffffffffffffffffffffffffffffffffffffffff168173ffffffffffffffffffffffffffffffffffffffff160361087e576040517f08c379a00000000000000000000000000000000000000000000000000000000081526004016108759061244b565b60405180910390fd5b80915050919050565b60008073ffffffffffffffffffffffffffffffffffffffff168273ffffffffffffffffffffffffffffffffffffffff16036108f7576040517f08c379a00000000000000000000000000000000000000000000000000000000081526004016108ee906124dd565b60405180910390fd5b600360008373ffffffffffffffffffffffffffffffffffffffff1673ffffffffffffffffffffffffffffffffffffffff168152602001908152602001600020549050919050565b610946611088565b6109506000611312565b565b61095a611088565b6109626113d8565b565b6000600660019054906101000a900473ffffffffffffffffffffffffffffffffffffffff16905090565b60606001805461099d90612218565b80601f01602080910402602001604051908101604052809291908181526020018280546109c990612218565b8015610a165780601f106109eb57610100808354040283529160200191610a16565b820191906000526020600020905b8154815290600101906020018083116109f957829003601f168201915b5050505050905090565b610a32610a2b610ccc565b838361143b565b5050565b610a47610a41610ccc565b83610d8d565b610a86576040517f08c379a0000000000000000000000000000000000000000000000000000000008152600401610a7d906123df565b60405180910390fd5b610a92848484846115a7565b50505050565b6060610aa382610c81565b6000610aad611603565b90506000815111610acd5760405180602001604052806000815250610af8565b80610ad78461161a565b604051602001610ae8929190612539565b6040516020818303038152906040525b915050919050565b6000600560008473ffffffffffffffffffffffffffffffffffffffff1673ffffffffffffffffffffffffffffffffffffffff16815260200190815260200160002060008373ffffffffffffffffffffffffffffffffffffffff1673ffffffffffffffffffffffffffffffffffffffff16815260200190815260200160002060009054906101000a900460ff16905092915050565b610b9c611088565b600073ffffffffffffffffffffffffffffffffffffffff168173ffffffffffffffffffffffffffffffffffffffff1603610c0b576040517f08c379a0000000000000000000000000000000000000000000000000000000008152600401610c02906125cf565b60405180910390fd5b610c1481611312565b50565b60007f01ffc9a7000000000000000000000000000000000000000000000000000000007bffffffffffffffffffffffffffffffffffffffffffffffffffffffff1916827bffffffffffffffffffffffffffffffffffffffffffffffffffffffff1916149050919050565b610c8a8161177a565b610cc9576040517f08c379a0000000000000000000000000000000000000000000000000000000008152600401610cc09061244b565b60405180910390fd5b50565b600033905090565b816004600083815260200190815260200160002060006101000a81548173ffffffffffffffffffffffffffffffffffffffff021916908373ffffffffffffffffffffffffffffffffffffffff160217905550808273ffffffffffffffffffffffffffffffffffffffff16610d47836107d6565b73ffffffffffffffffffffffffffffffffffffffff167f8c5be1e5ebec7d5bd14f71427d1e84f3dd0314c0f7b2291e5b200ac8c7c3b92560405160405180910390a45050565b600080610d99836107d6565b90508073ffffffffffffffffffffffffffffffffffffffff168473ffffffffffffffffffffffffffffffffffffffff161480610ddb5750610dda8185610b00565b5b80610e1957508373ffffffffffffffffffffffffffffffffffffffff16610e0184610546565b73ffffffffffffffffffffffffffffffffffffffff16145b91505092915050565b8273ffffffffffffffffffffffffffffffffffffffff16610e42826107d6565b73ffffffffffffffffffffffffffffffffffffffff1614610e98576040517f08c379a0000000000000000000000000000000000000000000000000000000008152600401610e8f90612661565b60405180910390fd5b600073ffffffffffffffffffffffffffffffffffffffff168273ffffffffffffffffffffffffffffffffffffffff1603610f07576040517f08c379a0000000000000000000000000000000000000000000000000000000008152600401610efe906126f3565b60405180910390fd5b610f128383836117e6565b610f1d600082610cd4565b6001600360008573ffffffffffffffffffffffffffffffffffffffff1673ffffffffffffffffffffffffffffffffffffffff1681526020019081526020016000206000828254610f6d9190612742565b925050819055506001600360008473ffffffffffffffffffffffffffffffffffffffff1673ffffffffffffffffffffffffffffffffffffffff1681526020019081526020016000206000828254610fc49190612776565b92505081905550816002600083815260200190815260200160002060006101000a81548173ffffffffffffffffffffffffffffffffffffffff021916908373ffffffffffffffffffffffffffffffffffffffff160217905550808273ffffffffffffffffffffffffffffffffffffffff168473ffffffffffffffffffffffffffffffffffffffff167fddf252ad1be2c89b69c2b068fc378daa952ba7f163c4a11628f55a4df523b3ef60405160405180910390a46110838383836117fe565b505050565b611090610ccc565b73ffffffffffffffffffffffffffffffffffffffff166110ae610964565b73ffffffffffffffffffffffffffffffffffffffff1614611104576040517f08c379a00000000000000000000000000000000000000000000000000000000081526004016110fb906127f6565b60405180910390fd5b565b61110e611803565b6000600660006101000a81548160ff0219169083151502179055507f5db9ee0a495bf2e6ff9c91a7834c1ba4fdd244a5e8aa4e537bd38aeae4b073aa611152610ccc565b60405161115f9190611e54565b60405180910390a1565b6111716107bf565b156111b1576040517f08c379a00000000000000000000000000000000000000000000000000000000081526004016111a890612862565b60405180910390fd5b565b600081600001549050919050565b6001816000016000828254019250508190555050565b6111f182826040518060200160405280600081525061184c565b5050565b6000611200826107d6565b905061120e816000846117e6565b611219600083610cd4565b6001600360008373ffffffffffffffffffffffffffffffffffffffff1673ffffffffffffffffffffffffffffffffffffffff16815260200190815260200160002060008282546112699190612742565b925050819055506002600083815260200190815260200160002060006101000a81549073ffffffffffffffffffffffffffffffffffffffff021916905581600073ffffffffffffffffffffffffffffffffffffffff168273ffffffffffffffffffffffffffffffffffffffff167fddf252ad1be2c89b69c2b068fc378daa952ba7f163c4a11628f55a4df523b3ef60405160405180910390a461130e816000846117fe565b5050565b6000600660019054906101000a900473ffffffffffffffffffffffffffffffffffffffff16905081600660016101000a81548173ffffffffffffffffffffffffffffffffffffffff021916908373ffffffffffffffffffffffffffffffffffffffff1602179055508173ffffffffffffffffffffffffffffffffffffffff168173ffffffffffffffffffffffffffffffffffffffff167f8be0079c531659141344cd1fd0a4f28419497f9722a3daafe3b4186f6b6457e060405160405180910390a35050565b6113e0611169565b6001600660006101000a81548160ff0219169083151502179055507f62e78cea01bee320cd4e420270b5ea74000d11b0c9f74754ebdbfc544b05a258611424610ccc565b6040516114319190611e54565b60405180910390a1565b8173ffffffffffffffffffffffffffffffffffffffff168373ffffffffffffffffffffffffffffffffffffffff16036114a9576040517f08c379a00000000000000000000000000000000000000000000000000000000081526004016114a0906128ce565b60405180910390fd5b80600560008573ffffffffffffffffffffffffffffffffffffffff1673ffffffffffffffffffffffffffffffffffffffff16815260200190815260200160002060008473ffffffffffffffffffffffffffffffffffffffff1673ffffffffffffffffffffffffffffffffffffffff16815260200190815260200160002060006101000a81548160ff0219169083151502179055508173ffffffffffffffffffffffffffffffffffffffff168373ffffffffffffffffffffffffffffffffffffffff167f17307eab39ab6107e8899845ad3d59bd9653f200f220920489ca2b5937696c318360405161159a9190611ce3565b60405180910390a3505050565b6115b2848484610e22565b6115be848484846118a7565b6115fd576040517f08c379a00000000000000000000000000000000000000000000000000000000081526004016115f490612960565b60405180910390fd5b50505050565b606060405180602001604052806000815250905090565b606060008203611661576040518060400160405280600181526020017f30000000000000000000000000000000000000000000000000000000000000008152509050611775565b600082905060005b6000821461169357808061167c90612980565b915050600a8261168c91906129f7565b9150611669565b60008167ffffffffffffffff8111156116af576116ae611ffb565b5b6040519080825280601f01601f1916602001820160405280156116e15781602001600182028036833780820191505090505b5090505b6000851461176e576001826116fa9190612742565b9150600a856117099190612a28565b60306117159190612776565b60f81b81838151811061172b5761172a612a59565b5b60200101907effffffffffffffffffffffffffffffffffffffffffffffffffffffffffffff1916908160001a905350600a8561176791906129f7565b94506116e5565b8093505050505b919050565b60008073ffffffffffffffffffffffffffffffffffffffff166002600084815260200190815260200160002060009054906101000a900473ffffffffffffffffffffffffffffffffffffffff1673ffffffffffffffffffffffffffffffffffffffff1614159050919050565b6117ee611169565b6117f9838383611a2e565b505050565b505050565b61180b6107bf565b61184a576040517f08c379a000000000000000000000000000000000000000000000000000000000815260040161184190612ad4565b60405180910390fd5b565b6118568383611a33565b61186360008484846118a7565b6118a2576040517f08c379a000000000000000000000000000000000000000000000000000000000815260040161189990612960565b60405180910390fd5b505050565b60006118c88473ffffffffffffffffffffffffffffffffffffffff16611c0c565b15611a21578373ffffffffffffffffffffffffffffffffffffffff1663150b7a026118f1610ccc565b8786866040518563ffffffff1660e01b81526004016119139493929190612b49565b6020604051808303816000875af192505050801561194f57506040513d601f19601f8201168201806040525081019061194c9190612baa565b60015b6119d1573d806000811461197f576040519150601f19603f3d011682016040523d82523d6000602084013e611984565b606091505b5060008151036119c9576040517f08c379a00000000000000000000000000000000000000000000000000000000081526004016119c090612960565b60405180910390fd5b805181602001fd5b63150b7a0260e01b7bffffffffffffffffffffffffffffffffffffffffffffffffffffffff1916817bffffffffffffffffffffffffffffffffffffffffffffffffffffffff191614915050611a26565b600190505b949350505050565b505050565b600073ffffffffffffffffffffffffffffffffffffffff168273ffffffffffffffffffffffffffffffffffffffff1603611aa2576040517f08c379a0000000000000000000000000000000000000000000000000000000008152600401611a9990612c23565b60405180910390fd5b611aab8161177a565b15611aeb576040517f08c379a0000000000000000000000000000000000000000000000000000000008152600401611ae290612c8f565b60405180910390fd5b611af7600083836117e6565b6001600360008473ffffffffffffffffffffffffffffffffffffffff1673ffffffffffffffffffffffffffffffffffffffff1681526020019081526020016000206000828254611b479190612776565b92505081905550816002600083815260200190815260200160002060006101000a81548173ffffffffffffffffffffffffffffffffffffffff021916908373ffffffffffffffffffffffffffffffffffffffff160217905550808273ffffffffffffffffffffffffffffffffffffffff16600073ffffffffffffffffffffffffffffffffffffffff167fddf252ad1be2c89b69c2b068fc378daa952ba7f163c4a11628f55a4df523b3ef60405160405180910390a4611c08600083836117fe565b5050565b6000808273ffffffffffffffffffffffffffffffffffffffff163b119050919050565b6000604051905090565b600080fd5b600080fd5b60007fffffffff0000000000000000000000000000000000000000000000000000000082169050919050565b611c7881611c43565b8114611c8357600080fd5b50565b600081359050611c9581611c6f565b92915050565b600060208284031215611cb157611cb0611c39565b5b6000611cbf84828501611c86565b91505092915050565b60008115159050919050565b611cdd81611cc8565b82525050565b6000602082019050611cf86000830184611cd4565b92915050565b600081519050919050565b600082825260208201905092915050565b60005b83811015611d38578082015181840152602081019050611d1d565b60008484015250505050565b6000601f19601f8301169050919050565b6000611d6082611cfe565b611d6a8185611d09565b9350611d7a818560208601611d1a565b611d8381611d44565b840191505092915050565b60006020820190508181036000830152611da88184611d55565b905092915050565b6000819050919050565b611dc381611db0565b8114611dce57600080fd5b50565b600081359050611de081611dba565b92915050565b600060208284031215611dfc57611dfb611c39565b5b6000611e0a84828501611dd1565b91505092915050565b600073ffffffffffffffffffffffffffffffffffffffff82169050919050565b6000611e3e82611e13565b9050919050565b611e4e81611e33565b82525050565b6000602082019050611e696000830184611e45565b92915050565b611e7881611e33565b8114611e8357600080fd5b50565b600081359050611e9581611e6f565b92915050565b60008060408385031215611eb257611eb1611c39565b5b6000611ec085828601611e86565b9250506020611ed185828601611dd1565b9150509250929050565b600080600060608486031215611ef457611ef3611c39565b5b6000611f0286828701611e86565b9350506020611f1386828701611e86565b9250506040611f2486828701611dd1565b9150509250925092565b600060208284031215611f4457611f43611c39565b5b6000611f5284828501611e86565b91505092915050565b611f6481611db0565b82525050565b6000602082019050611f7f6000830184611f5b565b92915050565b611f8e81611cc8565b8114611f9957600080fd5b50565b600081359050611fab81611f85565b92915050565b60008060408385031215611fc857611fc7611c39565b5b6000611fd685828601611e86565b9250506020611fe785828601611f9c565b9150509250929050565b600080fd5b600080fd5b7f4e487b7100000000000000000000000000000000000000000000000000000000600052604160045260246000fd5b61203382611d44565b810181811067ffffffffffffffff8211171561205257612051611ffb565b5b80604052505050565b6000612065611c2f565b9050612071828261202a565b919050565b600067ffffffffffffffff82111561209157612090611ffb565b5b61209a82611d44565b9050602081019050919050565b82818337600083830152505050565b60006120c96120c484612076565b61205b565b9050828152602081018484840111156120e5576120e4611ff6565b5b6120f08482856120a7565b509392505050565b600082601f83011261210d5761210c611ff1565b5b813561211d8482602086016120b6565b91505092915050565b600080600080608085870312156121405761213f611c39565b5b600061214e87828801611e86565b945050602061215f87828801611e86565b935050604061217087828801611dd1565b925050606085013567ffffffffffffffff81111561219157612190611c3e565b5b61219d878288016120f8565b91505092959194509250565b600080604083850312156121c0576121bf611c39565b5b60006121ce85828601611e86565b92505060206121df85828601611e86565b9150509250929050565b7f4e487b7100000000000000000000000000000000000000000000000000000000600052602260045260246000fd5b6000600282049050600182168061223057607f821691505b602082108103612243576122426121e9565b5b50919050565b7f4552433732313a20617070726f76616c20746f2063757272656e74206f776e6560008201527f7200000000000000000000000000000000000000000000000000000000000000602082015250565b60006122a5602183611d09565b91506122b082612249565b604082019050919050565b600060208201905081810360008301526122d481612298565b9050919050565b7f4552433732313a20617070726f76652063616c6c6572206973206e6f7420746f60008201527f6b656e206f776e6572206e6f7220617070726f76656420666f7220616c6c0000602082015250565b6000612337603e83611d09565b9150612342826122db565b604082019050919050565b600060208201905081810360008301526123668161232a565b9050919050565b7f4552433732313a2063616c6c6572206973206e6f7420746f6b656e206f776e6560008201527f72206e6f7220617070726f766564000000000000000000000000000000000000602082015250565b60006123c9602e83611d09565b91506123d48261236d565b604082019050919050565b600060208201905081810360008301526123f8816123bc565b9050919050565b7f4552433732313a20696e76616c696420746f6b656e2049440000000000000000600082015250565b6000612435601883611d09565b9150612440826123ff565b602082019050919050565b6000602082019050818103600083015261246481612428565b9050919050565b7f4552433732313a2061646472657373207a65726f206973206e6f74206120766160008201527f6c6964206f776e65720000000000000000000000000000000000000000000000602082015250565b60006124c7602983611d09565b91506124d28261246b565b604082019050919050565b600060208201905081810360008301526124f6816124ba565b9050919050565b600081905092915050565b600061251382611cfe565b61251d81856124fd565b935061252d818560208601611d1a565b80840191505092915050565b60006125458285612508565b91506125518284612508565b91508190509392505050565b7f4f776e61626c653a206e6577206f776e657220697320746865207a65726f206160008201527f6464726573730000000000000000000000000000000000000000000000000000602082015250565b60006125b9602683611d09565b91506125c48261255d565b604082019050919050565b600060208201905081810360008301526125e8816125ac565b9050919050565b7f4552433732313a207472616e736665722066726f6d20696e636f72726563742060008201527f6f776e6572000000000000000000000000000000000000000000000000000000602082015250565b600061264b602583611d09565b9150612656826125ef565b604082019050919050565b6000602082019050818103600083015261267a8161263e565b9050919050565b7f4552433732313a207472616e7366657220746f20746865207a65726f2061646460008201527f7265737300000000000000000000000000000000000000000000000000000000602082015250565b60006126dd602483611d09565b91506126e882612681565b604082019050919050565b6000602082019050818103600083015261270c816126d0565b9050919050565b7f4e487b7100000000000000000000000000000000000000000000000000000000600052601160045260246000fd5b600061274d82611db0565b915061275883611db0565b92508282039050818111156127705761276f612713565b5b92915050565b600061278182611db0565b915061278c83611db0565b92508282019050808211156127a4576127a3612713565b5b92915050565b7f4f776e61626c653a2063616c6c6572206973206e6f7420746865206f776e6572600082015250565b60006127e0602083611d09565b91506127eb826127aa565b602082019050919050565b6000602082019050818103600083015261280f816127d3565b9050919050565b7f5061757361626c653a2070617573656400000000000000000000000000000000600082015250565b600061284c601083611d09565b915061285782612816565b602082019050919050565b6000602082019050818103600083015261287b8161283f565b9050919050565b7f4552433732313a20617070726f766520746f2063616c6c657200000000000000600082015250565b60006128b8601983611d09565b91506128c382612882565b602082019050919050565b600060208201905081810360008301526128e7816128ab565b9050919050565b7f4552433732313a207472616e7366657220746f206e6f6e20455243373231526560008201527f63656976657220696d706c656d656e7465720000000000000000000000000000602082015250565b600061294a603283611d09565b9150612955826128ee565b604082019050919050565b600060208201905081810360008301526129798161293d565b9050919050565b600061298b82611db0565b91507fffffffffffffffffffffffffffffffffffffffffffffffffffffffffffffffff82036129bd576129bc612713565b5b600182019050919050565b7f4e487b7100000000000000000000000000000000000000000000000000000000600052601260045260246000fd5b6000612a0282611db0565b9150612a0d83611db0565b925082612a1d57612a1c6129c8565b5b828204905092915050565b6000612a3382611db0565b9150612a3e83611db0565b925082612a4e57612a4d6129c8565b5b828206905092915050565b7f4e487b7100000000000000000000000000000000000000000000000000000000600052603260045260246000fd5b7f5061757361626c653a206e6f7420706175736564000000000000000000000000600082015250565b6000612abe601483611d09565b9150612ac982612a88565b602082019050919050565b60006020820190508181036000830152612aed81612ab1565b9050919050565b600081519050919050565b600082825260208201905092915050565b6000612b1b82612af4565b612b258185612aff565b9350612b35818560208601611d1a565b612b3e81611d44565b840191505092915050565b6000608082019050612b5e6000830187611e45565b612b6b6020830186611e45565b612b786040830185611f5b565b8181036060830152612b8a8184612b10565b905095945050505050565b600081519050612ba481611c6f565b92915050565b600060208284031215612bc057612bbf611c39565b5b6000612bce84828501612b95565b91505092915050565b7f4552433732313a206d696e7420746f20746865207a65726f2061646472657373600082015250565b6000612c0d602083611d09565b9150612c1882612bd7565b602082019050919050565b60006020820190508181036000830152612c3c81612c00565b9050919050565b7f4552433732313a20746f6b656e20616c7265616479206d696e74656400000000600082015250565b6000612c79601c83611d09565b9150612c8482612c43565b602082019050919050565b60006020820190508181036000830152612ca881612c6c565b905091905056fea2646970667358221220990faba1ce00c2afaf002a62ed622bcbe97e5cfe2e344b3ef650b824595724f164736f6c63430008110033",
  "immutableReferences": {},
  "source": "// SPDX-License-Identifier: MIT\npragma solidity ^0.8.4;\n\nimport \"../node_modules/@openzeppelin/contracts/token/ERC721/ERC721.sol\";\nimport \"../node_modules/@openzeppelin/contracts/security/Pausable.sol\";\nimport \"../node_modules/@openzeppelin/contracts/access/Ownable.sol\";\nimport \"../node_modules/@openzeppelin/contracts/token/ERC721/extensions/ERC721Burnable.sol\";\nimport \"../node_modules/@openzeppelin/contracts/utils/Counters.sol\";\n\ncontract Zombies is ERC721, Pausable, Ownable, ERC721Burnable {\n    using Counters for Counters.Counter;\n\n    Counters.Counter private _tokenIdCounter;\n\n    constructor(string memory _name, string memory _symbol) ERC721(_name, _symbol) {}\n\n    function pause() public onlyOwner {\n        _pause();\n    }\n\n    function unpause() public onlyOwner {\n        _unpause();\n    }\n\n    function safeMint(address to) public whenNotPaused {\n        uint256 tokenId = _tokenIdCounter.current();\n        _tokenIdCounter.increment();\n        _safeMint(to, tokenId);\n    }\n\n    function _beforeTokenTransfer(\n        address from,\n        address to,\n        uint256 tokenId\n    ) internal override whenNotPaused {\n        super._beforeTokenTransfer(from, to, tokenId);\n    }\n}\n",
  "sourcePath": "/Users/davidrodriguez/Documents/repos/poc_first_solidity_nft_contract/contract/contracts/contract.sol",
  "compiler": {
    "name": "solc",
    "version": "0.8.17+commit.8df45f5f.Emscripten.clang"
  },
  "schemaVersion": "3.4.10",
  "updatedAt": "2022-10-31T16:29:51.649Z",
  "networkType": "ethereum",
  "devdoc": {
    "kind": "dev",
    "methods": {
      "approve(address,uint256)": {
        "details": "See {IERC721-approve}."
      },
      "balanceOf(address)": {
        "details": "See {IERC721-balanceOf}."
      },
      "burn(uint256)": {
        "details": "Burns `tokenId`. See {ERC721-_burn}. Requirements: - The caller must own `tokenId` or be an approved operator."
      },
      "getApproved(uint256)": {
        "details": "See {IERC721-getApproved}."
      },
      "isApprovedForAll(address,address)": {
        "details": "See {IERC721-isApprovedForAll}."
      },
      "name()": {
        "details": "See {IERC721Metadata-name}."
      },
      "owner()": {
        "details": "Returns the address of the current owner."
      },
      "ownerOf(uint256)": {
        "details": "See {IERC721-ownerOf}."
      },
      "paused()": {
        "details": "Returns true if the contract is paused, and false otherwise."
      },
      "renounceOwnership()": {
        "details": "Leaves the contract without owner. It will not be possible to call `onlyOwner` functions anymore. Can only be called by the current owner. NOTE: Renouncing ownership will leave the contract without an owner, thereby removing any functionality that is only available to the owner."
      },
      "safeTransferFrom(address,address,uint256)": {
        "details": "See {IERC721-safeTransferFrom}."
      },
      "safeTransferFrom(address,address,uint256,bytes)": {
        "details": "See {IERC721-safeTransferFrom}."
      },
      "setApprovalForAll(address,bool)": {
        "details": "See {IERC721-setApprovalForAll}."
      },
      "supportsInterface(bytes4)": {
        "details": "See {IERC165-supportsInterface}."
      },
      "symbol()": {
        "details": "See {IERC721Metadata-symbol}."
      },
      "tokenURI(uint256)": {
        "details": "See {IERC721Metadata-tokenURI}."
      },
      "transferFrom(address,address,uint256)": {
        "details": "See {IERC721-transferFrom}."
      },
      "transferOwnership(address)": {
        "details": "Transfers ownership of the contract to a new account (`newOwner`). Can only be called by the current owner."
      }
    },
    "version": 1
  },
  "userdoc": {
    "kind": "user",
    "methods": {},
    "version": 1
  }
}